:020000040800F2
:100000000000272041E400087D3300087F3300080A
:1000100081330008833300088533000891E4000829
:1000200000000000000000000000000051BF0008B8
:100030008733000800000000F1BE000821DB000843
:1000400091E4000891E4000891E4000891E40008BC
:1000500091E4000891E4000891E4000891E40008AC
:1000600091E4000891E4000891E4000891E400089C
:1000700091E4000891E4000891E4000891E400088C
:1000800091E400088933000891E4000891E4000835
:1000900091E4000891E4000891E4000891E400086C
:1000A00091E4000891E4000891E4000891E400085C
:1000B00091E4000891E4000891E4000891E400084C
:1000C00091E4000891E4000891E4000891E400083C
:1000D00091E4000891E4000891E4000891E400082C
:1000E00091E4000891E4000891E4000891E400081C
:1000F00091E400089133000891E4000891E40008BD
:1001000091E4000891E4000891E4000891E40008FB
:1001100091E4000891E4000891E4000891E40008EB
:1001200091E4000891E4000891E4000891E40008DB
:1001300091E4000891E4000891E4000891E40008CB
:1001400091E4000891E4000891E4000891E40008BB
:1001500091E4000891E4000891E4000891E40008AB
:1001600091E4000891E4000891E4000891E400089B
:1001700091E4000891E4000891E4000891E400088B
:1001800091E4000891E4000891E4000891E400087B
:1001900091E4000891E4000891E4000891E400086B
:1001A00091E4000891E4000891E4000891E400085B
:1001B00091E4000891E4000891E4000891E400084B
:1001C00091E4000891E4000891E4000891E400083B
:1001D00091E4000891E4000891E4000891E400082B
:1001E00091E4000891E4000891E4000891E400081B
:1001F00091E4000891E4000891E4000891E400080B
:1002000091E4000891E4000891E4000891E40008FA
:1002100091E4000891E400081517000891E4000833
:1002200091E4000891E4000891E4000891E40008DA
:1002300091E4000891E4000891E4000891E40008CA
:1002400091E4000891E4000891E4000891E40008BA
:100250009D330008A933000891E40008B533000875
:0C02600091E4000891E4000891E400081B
:1002700010B5054C237833B9044B13B1044800E0A2
:1002800000BF0123237010BDC853232000000000CD
:1002900028A3020808B5034B1BB10349034800E03B
:1002A00000BF08BD00000000CC53232028A3020893
:1002B00053B94AB9002908BF00281CBF4FF0FF31CD
:1002C0004FF0FF3000F07CB9ADF1080C6DE904CEC1
:1002D00000F006F8DDF804E0DDE9022304B0704721
:1002E0002DE9F0478C46089D04468A46002B4AD1EA
:1002F0008A42174662D9B2FA82F64EB1C6F1200E92
:1003000001FA06F3B740B44020FA0EFE4EEA030AA3
:100310004FEA1748230C1FFA87F9BAFBF8FE08FBCF
:100320001EAA0EFB09F243EA0A439A420BD9FB18B4
:100330000EF1FF312CBF012000209A4202D9002883
:1003400000F02A818E469A1AA3B2B2FBF8F008FB9D
:10035000102200FB09F943EA0244A14507D93C19E0
:1003600000F1FF3302D2A14500F210811846A4EB40
:10037000090440EA0E4000211DB1F4400023C5E904
:100380000043BDE8F0878B4208D9002D00F0F280D1
:100390000021C5E9000C0846BDE8F087B3FA83F1F7
:1003A00000294ED16345C0F0E880824240F2E580EA
:1003B0000846002DE5D0C5E9004AE2E702B9FFDEB4
:1003C000B2FA82F6002E40F099808B1A4FEA124E54
:1003D0001FFA82F801214FEA144CB3FBFEF20EFB28
:1003E000123008FB02F94CEA004CE14508D917EB42
:1003F0000C0C02F1FF3302D2E14500F2CA801A462A
:10040000ACEB090CA3B2BCFBFEF00EFB10CC08FB5E
:1004100000F843EA0C44A0450ED93C1900F1FF3323
:100420002CBF4FF0010C4FF0000CA04503D9BCF1DC
:10043000000F00F0A8801846A4EB080440EA024030
:100440009AE7C1F120048B4002FA01FE0CFA01F692
:10045000E24020FA04F72CFA04FC00FA01F81343F6
:100460003E431F0C320C1FFA83F9BCFBF7F007FB6D
:1004700010CC00FB09FA42EA0C4CE24508D913EB18
:100480000C0C00F1FF3202D2E24500F289801046E6
:10049000ACEB0A0CB6B2BCFBF7FA07FB1ACC0AFBB2
:1004A00009F946EA0C42914506D99A180AF1FF3635
:1004B00001D291457AD8B2464AEA0040A2EB09023D
:1004C000A0FB0E67BA42B446B94602D307D1B04585
:1004D00005D2B6EB0E0C67EB030301389946002DED
:1004E0006BD0B8EB0C0362EB090202FA04F4CB40C8
:1004F000CA4000211C43C5E9004242E7B740C6F1AB
:10050000200201FA06F3B44021FA02FC4FEA174E2A
:1005100020FA02F21FFA87F8BCFBFEF11A430EFB29
:1005200011CC01FB08F0130C43EA0C4C604507D9D1
:1005300017EB0C0C01F1FF3301D2604533D819469B
:10054000ACEB000C92B2BCFBFEF00EFB10CC00FB3F
:1005500008F342EA0C4C634507D917EB0C0C00F189
:10056000FF3201D2634525D81046ACEB030340EAC5
:10057000014130E72946284603E7841A6CEB030360
:1005800001209A4615E702383C4455E702383C44BE
:10059000EDE6023ABC4433E7AEF1020E3B44D2E64C
:1005A00002389C4474E70239BC44C9E7AAF1020A44
:1005B0001A4481E70238BC44D7E72946E1E600BF88
:1005C000704700BF7047043870477047C0680368C1
:1005D000DB6A1847A0F10400FFF7F8BF10B5044626
:1005E000102128F015FE204610BDA0F10400F5E70B
:1005F000002210B58260044AC16002F1080424326E
:100600000460426010BD00BF90A3020870477047AD
:100610007047704710B50446024B036000F0F9F8CC
:10062000204610BDCCA3020810B50446FFF7F2FF28
:100630002046EC2128F0ECFD204610BD10B5044604
:1006400000F074F9014B2046236010BDCCA30208D2
:1006500000F0E0B810B504460B46054A0421E4302A
:1006600013F009FF04F19800BDE8104011F0F4BF49
:10067000C0A302080022026070470000002370B58A
:100680000546084C08481A46214600680DF002FC51
:1006900030B9286821680368BDE870409B68184736
:1006A00070BD00BFE4532320143C2520704700F5A3
:1006B00098730868496803C37047704700F08CBAA4
:1006C00010B504464FF4AE7128F0A2FD204610BDCF
:1006D00010B50446D0F85801FFF7D0FF2046BDE81A
:1006E000104010F0C5BF10B50446D0F8400158B115
:1006F0000368DB68984738B1D4F8400103689B6809
:1007000098470023C4F8403110BD000010B50446DE
:1007100000F032FA014B2046236010BD04A4020809
:1007200090F8252012B103685B69184770470020D4
:10073000704781807047C180704701817047418157
:10074000704770477047704770477047C38810B450
:10075000D21A838812B2C91A036809B25B6D5DF8B8
:10076000044B18474FF6FF7383814FF0FF3303624A
:100770001368C3611060704790F825201AB190F893
:10078000242002B11860704770477047704730B539
:1007900085B06D460368018104460146D3F8843074
:1007A0002846984795E807003C3484E8070005B0E0
:1007B00030BD30B585B06D460368418104460146C1
:1007C000D3F884302846984795E807003C3484E8FD
:1007D000070005B030BD0022028042808280C280C6
:1007E000704780F83610704770B5044615460368A8
:1007F0001B6B9847236829462046BDE870405B6E16
:1008000018470020704708B5FFF78AFF08BD806CC5
:10081000704770477047704710B50446082128F0AC
:10082000F7FC204610BD10B504464C2128F0F0FC22
:10083000204610BD10B50446EC2128F0E9FC204606
:1008400010BD000070B5036804465E6B114B8DB29D
:100850001B682BB96C21104B104A114828F0E4FC9E
:100860001049828D0988914203D80F4B0B4A6D21A4
:10087000F3E713F812200D4B1B6853F822000368AE
:100880001B6B9847291A33462046BDE8704009B2D1
:10089000184700BF2C352520F3A40208E8A502085C
:1008A00035A502083035252076A5020834352520E7
:1008B00000224FF0FF318260C0E90021704770B51F
:1008C0000446154603681B6B984723682946204653
:1008D000BDE870405B6B184770B504461546036869
:1008E0009B6B9847236829462046BDE87040DB6B28
:1008F00018470000012180F825100B4900220160F3
:10090000FF218280C280028142818281C281028273
:100910004282C0E90522C2610284428480F8242018
:1009200080F82610826270479CB502082DE9F04FCE
:1009300004460025264689B012F036F9604BE5637F
:1009400046F8403B04F16C0B3046FFF7D3FF5846A6
:10095000FFF7D0FF4FF6FF734FF47F024FF001090E
:10096000A4F8C430A4F8D830A4F8DA30DFF878A1BD
:10097000544B3046C4F89830C4F8CC2029462A4657
:10098000A4F89C50A4F89E50A4F8A050A4F8A2503B
:10099000A4F8A450A4F8A650A4F8A850A4F8AA500B
:1009A000C4E92B55C4F8B450A4F8B850A4F8BA5010
:1009B00084F8BC5084F8BD90C4F8C0A0C4F8C850F6
:1009C00084F8D05084F8D150A4F8D450A4F8D6506C
:1009D000C4F8DC50C4F8E050FFF771FF4FF4F07238
:1009E00030464FF44871FFF777FF4FF07F4304F133
:1009F0000408A3663146404601930DF083FD2A4664
:100A000029465846FFF75BFF4FF4F0724FF44871E8
:100A10005846FFF761FF4FF0FF3204F19807C4F822
:100A20009420594640460DF06DFDDC224FF4AC7128
:100A30003846FFF744FF019B02AEC4F8C830D4F833
:100A40009830A4F8CC503046D3F8843039469847D3
:100A500096E8070004F1D40383E807001A4B04F179
:100A6000E4061B682BB96021184B194A194828F075
:100A7000DBFB194B1B881BB9184B154A6121F5E7A5
:100A8000174B2946186800F077FB164A03460421E5
:100A9000304613F0F0FC3846C4F8E0600EF0A0FFDA
:100AA00006A93846CDF818A0ADF81C900EF0B8FF96
:100AB000404639460DF026FD204609B0BDE8F08FCE
:100AC000BCA5020868A402082C352520F3A402085E
:100AD00023A6020835A502083035252076A5020890
:100AE00038352520F0A4020858A402087047704742
:100AF0007047416070477047012303727047704729
:100B00007047034610B4C46841686210E40701EB03
:100B100002009B6848BF8A585DF8044B48BFD35811
:100B2000184743682BB183682BB9C06800F00100F7
:100B30007047184670470120704710B504460C21D5
:100B400028F066FB204610BD10B504464FF4AE7188
:100B500028F05EFB204610BD10B50446102128F099
:100B600057FB204610BD10B510F000FDBDE8104049
:100B70000368DB6B18470000F8B5044600251746EC
:100B80000E4610F0B5FD104BC4F83C511C600F4BE5
:100B9000C4F8405123600E4BC4F84851C4F84431A6
:100BA0000C4BC4F84C511868C4F85051C4F8547137
:100BB000C4F85861036829469B689847284600F0A6
:100BC000A1FA2046F8BD00BF283525207CA60208E2
:100BD00064A60208DC342520064BC0F84801C0F8A2
:100BE0004C310023C0F8503100F5A273C0F84031F9
:100BF000704700BF390D00082DE9F047074690689F
:100C00009946036888461B6A1546DDF820A0984778
:100C1000EB2805D8A321424B424A434828F004FB65
:100C2000686803681B6A98470F2803D83F4B3D4A02
:100C3000A421F2E7E86803681B6A98470B2803D8E9
:100C40003B4B384AA521E8E710F090FC043010F047
:100C5000B2FCD9F8000010B10368DB689847D9F8F6
:100C6000000010B103681B689847386810B103682A
:100C70005B699847D8F8000010B103685B68984733
:100C8000386810B103681B689847D8F8000010B1A5
:100C900003689B689847E868002103685B6A984787
:100CA000044620B1002343600372224B0360A8680E
:100CB000002103685B6A9847064608B1FFF7BEFC4F
:100CC0006868002103685B6A9847054610B13146A1
:100CD000FFF78EFCC9F80040C8F800503E60E5B14F
:100CE0002B1DCAF80030C5F808A03368F5633046FC
:100CF000DB6898472B6828461B6898472146304692
:100D000012F0FEF8236820461B69984723682046A6
:100D10005B6998472846BDE8F0872B46E1E700BFAE
:100D2000ECA6020801A902087AA70208BBA70208DC
:100D30005EA80208D0A6020807B5D0F8583100F521
:100D40009E710093D0F85421034B0448FFF754FFE1
:100D500003B05DF804FB00BF1C35252018352520A5
:100D600013B5002249B102AB019203F8052D0268C8
:100D7000946801AAA04702B010BD0846FBE7C089ED
:100D80007047008A7047C088704780887047807AB3
:100D900000F07F007047807AC009704700207047DC
:100DA0009FED010A704700BF00000000406A7047D5
:100DB000806A704770478B88C069DB0A0A6850F800
:100DC00023001044704710B5C2B1137BB3B1547BFC
:100DD000D27A240204F4E0641443026A98B202EB6B
:100DE000840213888B4202D192F9020010BD05D80B
:100DF000013880B204320028F3D1F7E70020F5E78C
:100E000010B504462C2128F003FA204610BD00003E
:100E100030B504468BB0BDF860500895BDF85C5005
:100E200007959DF8505006959DF84C5005959DF8F6
:100E3000485004959DF8445003959DF84050029504
:100E40009DF83C500195BDF83850009511F0B2FC6A
:100E50002046064B2360159BE361169B2362199B7A
:100E600063621A9BA3620BB030BD00BF08AA0208E0
:100E70007047000030B5124D8FB02B6813F001039E
:100E80001BD13F2209920F4A012408920E4ACDE954
:100E90000B33CDE906320A9305930422CDE90133E1
:100EA0000A23CDE903240093224608490848FFF7A6
:100EB000AFFF08482C6028F0D5F905480FB030BDC9
:100EC000E853232064C2020860C2020844C1020839
:100ED000EC532320710E00087047000030B5124D0E
:100EE0008FB02B6813F001031BD13F2209920F4AE8
:100EF000012408920E4ACDE90B33CDE906320A935C
:100F000005930422CDE901332823CDE9032400937E
:100F1000224608490848FFF77BFF08482C6028F064
:100F2000A1F905480FB030BD185423205CC2020857
:100F30006CC202086CC102081C542320D90E0008A0
:100F40007047000030B5124C8FB0236813F00103D6
:100F50001BD13F2209920F4ACDE90B3308920E4A6A
:100F60000A93CDE90632059304220125CDE9013328
:100F70001423CDE903250093102208490848FFF700
:100F800047FF0848256028F06DF905480FB030BDCF
:100F90004854232068C2020870C202087CC10208BB
:100FA0004C542320410F0008704710B5044604211B
:100FB00028F02EF9204610BD08B503290FD8DFE828
:100FC00001F00A02060A00F015F8406808BD00F0BA
:100FD00011F88068FAE700F00DF80068F6E70020E5
:100FE000F4E70000004870477CAA0208012070471F
:100FF00002207047004870477854232010B5FFF74F
:10100000A1FF044C2060FFF769FF6060FFF732FF2B
:10101000A06010BD78542320002070470020704746
:101020000EB403B503AB53F8042B0021019311F068
:10103000E9F902B05DF804EB03B070470CB407B5F2
:1010400004AB53F8042B019311F0DCF903B05DF805
:1010500004EB02B07047000010B5436C044673B354
:10106000038F2BB9C521184B184A194828F0DCF812
:10107000C38E00EB43035B8C0BB312F054FC238F45
:10108000012B03D8134B144ACB21EEE7E28E40F636
:101090003F10531C9BB21946092B88BFA3F10A01CC
:1010A00004EB4101498C814209D10A2B28BF00235E
:1010B00004EB4202508C04EB4303588451842046D5
:1010C000BDE8104012F032BB90AA0208BDAB020886
:1010D00099AA0208DDAA0208EBAA020812F0EDBAEA
:1010E00010B586B002AC84E806001A460AAB059338
:1010F0000193099B21460093089B0FF0D5FD06B094
:1011000010BD000038B5D8B9114B12481B68124900
:10111000BBB11A689C681A4402605A681C441A449D
:101120000A606CB100220D4B1A80FFF763FF054681
:10113000FFF75EFF0A4B1C600A4B1D600A4B1880CC
:1011400038BD0A4B03600A4B0B600A4B1C68E8E78A
:1011500084542320885423208C542320905423200B
:101160002C352520343525203035252084C2020831
:1011700074C2020880C20208044B1B6853F82100A5
:10118000034B1B6803EB4000704700BF8C542320C7
:1011900088542320012380F8781080F87930704734
:1011A000002070474164003118BF0121014B1970C4
:1011B000704700BFDB34252000207047836B0BB1E4
:1011C0000846184770474FF6FF707047406803683D
:1011D0009B691847704770479022044B83F8762329
:1011E00083F8872383F88423704700BF00E100E081
:1011F000094A0A49D3680A48C3F30A03013B9BB270
:101200000B801169C1F30A01013901801364536B2A
:1012100043F0010353637047006801409454232056
:1012200092542320014B986A704700BF84680140A4
:101230000122024B996243F8602C70478468014098
:1012400070B504464FF4005113F0ECFC23685D6E5A
:1012500010F08CF901462046A84723682046D3F8B1
:101260008850044AAC46BDE8704000234FF000515E
:10127000604700BF0094112010B531B90A4B0B4AEA
:1012800040F2D2210A4827F0CFFFC0E90F12003206
:1012900018BF012207490A7002681946BDE81040CC
:1012A000D2F88C20104700BFCBAC020885AD0208F5
:1012B00003AD0208DA34252008B5094B1B888B42A0
:1012C00003D8084B1B88934205D9074B074A9E2138
:1012D000074827F0A9FF074B1980074B1A8008BD64
:1012E000D0342520D234252068AC020842AD020853
:1012F00003AD0208D6342520D834252013F0D0BB06
:1013000013F002BC0DF096BB0DF005BD10B5044600
:101310000EF038F923682046BDE81040D3F8AC3011
:10132000184790F87A301BB1406803681B6818476B
:101330001846704710B590F8784090F834100C4B70
:101340008C421A7809D03AB90A490B4A088814889D
:10135000108001220C801A7010BD002AFCD0064AB1
:101360000449148808880C8010800022F3E700BF2D
:10137000D4342520D2342520D03425204FF48002C7
:10138000034BDA6080221A6110221A61704700BF95
:1013900000E100E04FF480020A4BC3F88C20BFF359
:1013A0004F8FBFF36F8F8022C3F89020BFF34F8F12
:1013B000BFF36F8F1022C3F89020BFF34F8FBFF39E
:1013C0006F8F704700E100E010B5144C236823B321
:1013D000134B144A1B6C11888B4213D1124B198882
:1013E00008F01EFA226892F86A30013382F86A30F7
:1013F00000F024FB20680EF0C5F8BDE81040002086
:1014000000F095BC08F00CFA206803681B6A984746
:10141000BDE81040002000F08BBC10BDDC3425205E
:1014200000680140945423209254232003685B6C8D
:1014300018470120704703689B6A184740F2EF3055
:101440007047000007B5104B0521D3F8882076209F
:1014500042F48022C3F88820D3F8882002F4802246
:101460000192019A1A6E42F480221A661A6E22F4D0
:1014700080221A66002206F0F1F8762003B05DF8AB
:1014800004EB06F01FB900BF000C024608B50B289C
:101490000BD8DFE800F01206100A0A0A0A0808084A
:1014A0000808012008BD0520FCE7054B054A6B2113
:1014B000054827F0B9FE0020F4E70220F2E700BF5C
:1014C000EDAD0208BEAE020808AE020808B50A2853
:1014D00009D8DFE800F010060E080808080606061E
:1014E0000600012008BD054B054A8C21054827F060
:1014F0009BFE0020F6E70220F4E700BFEDAD0208F6
:1015000008AF020808AE0208F8B50C46487FFFF79E
:10151000BDFFA77F05463846FFF7B8FF06463846A9
:10152000FFF7D4FFA38A628BD21A464B1A64A18AB2
:10153000628B521A9A61A18A228B521A1A615863DD
:10154000A18AE28A42EA01425A642269DA63626845
:10155000DA602268207F402A6BD00FD8042A62D03C
:10156000202A66D045EA0060364B40F40030D8614E
:10157000617FA27F914262D0334A41E0B2F5807F21
:101580001AD0B2F5007F21D0802AEBD145EA006065
:1015900040F40030A768D8615E6222695A613A1D42
:1015A000DA623A78A2B1012A2CD0284B284A4FF4AB
:1015B0008371284827F038FE274A42EA0060D86144
:1015C000E2681A625E6222695A6118E0234AF4E70F
:1015D000D9697A88501E21F47F42012122F010023D
:1015E00042EA0022DA61174BDA6942F02002DA613E
:1015F000DA699206FCD410229A600029BCD0184AFD
:101600001A60F8BDDA69788822F47F42217F22F0DF
:101610001002013842F01002FF3942EA002218BFDE
:101620000121DA61DFE745EA006040F40030D8616B
:10163000C8E745EA006040F40030024BF7E742F2A9
:101640000132DDE700B0024001230100D3AD020802
:1016500080AE020808AE02080A000200090002007B
:101660000123020010B5887F0C46FFF72FFF174BB0
:101670005863A18AE28A42EA01425A642269DA6323
:10168000628BA18A521A1A642268082A16D1A18A8A
:10169000628B521A9A61A18A628B521A1A6158623D
:1016A000217F0B4A42EA0162DA61E2681A6222692A
:1016B0005A612269DA60074A1A6010BD0022D861B7
:1016C0001A61E2689A63044AF6E700BF00B002407C
:1016D0000900010001230200012303004FF48002EE
:1016E000044B0360044BC3F88C20BFF34F8FBFF350
:1016F0006F8F704738AE020800E100E010B5044675
:10170000FFF7ECFF20464FF45A6127F081FD204699
:1017100010BD0000094B5A6891070ED51A68920552
:101720000BD51A6822F400721A6002229A60044BE8
:101730001B68586803685B691847704700B002402F
:10174000DC34252070B5054600262C46094B0C30AC
:1017500068602E726E7244F8203B602221460EF0C3
:1017600051F805F55A63E6602434A342FBD12846BC
:1017700070BD00BF38AE0208034B1A68D207FCD414
:1017800023229A60704700BF00B0024030B50E4C73
:101790002568ED07FCD42325A5600225120442F03C
:1017A0000102FF2B65636264E063E16008D01B0601
:1017B00043F00213E361054B65626061236030BD55
:1017C000034BE3610123F9E700B00240010002008E
:1017D000020002FF30B50B4C2568ED07FCD4232531
:1017E000A560022512041B0643F4003342F00102F7
:1017F00065636264E063E160E361034B65626061BD
:10180000236030BD00B002400100020030B50F4C33
:101810002568ED07FCD42325A5600125090429438B
:10182000FF2B65636164E0630CD00949656241EA9E
:101830000363E36122F07F42064B22626061E06055
:10184000236030BDE561044BA263F9E700B00240BC
:1018500009000100010002000100030030B50D4C39
:101860002568ED07FCD42325A560012512042A4331
:10187000FF2B65636264E063E16007D0064A42EAD9
:101880000363E36165626061226030BD034BE36125
:101890002560FAE700B0024001000200010002FFEB
:1018A00030B50B4C2568ED07FCD42325A560012538
:1018B00012041B0643F400332A4365636264E06349
:1018C000E160E361034B65626061236030BD00BF8E
:1018D00000B002400100020070B5104C256815F000
:1018E0000105FBD12326090441F00101FF2BA6606D
:1018F00065636164E0630CD00949656241EA036392
:10190000E36122F07F42074B22626061E060236066
:1019100070BDE561044BA263F9E700BF00B002406F
:1019200009000100010002000100030070B50F4C26
:10193000256815F00105FBD12326FF2B08BF0223E4
:101940004FEA024242F00102A66018BF1B0665631F
:101950006264074A18BF43F00213E063E16017BFF7
:10196000E361E36165626061226070BD00B00240C6
:101970000100020070B50F4C256815F00105FBD180
:101980002326120442F00102A6606563626400220D
:10199000FF2B1CBF1B0643F40033E063E16018BF5C
:1019A000E361044B08BFE5615A62034A58611A605B
:1019B00070BD00BF00B0024001000200012108B567
:1019C000002208460CF04BF90A4B186028B9282170
:1019D000094B0A4A0A4827F027FC0022042101206B
:1019E0000CF0E4F9074B186018B9074B034A2C2197
:1019F000F0E708BD9C54232053AF020807B002084B
:101A00009CAF020898542320C5AF0208024B4FF048
:101A1000FF3118680CF072B99C542320014B1868F0
:101A20000CF09AB99C542320024B002118680CF04A
:101A300065B900BF9C542320FFF7F0BF0023034883
:101A40001A46034900680CF0F1B900BF98542320EE
:101A500004282320002313B5074C1A4601A9206847
:101A60000CF018FA4FF0FF33002201A920680CF0A7
:101A700011FA02B010BD00BF985423200120704716
:101A80000C2070470C2303FB0100083070470C2327
:101A900003FB01000830704701207047EC207047BD
:101AA000EC2303FB010008307047EC2303FB01002B
:101AB00008307047012070471020704700EB01107C
:101AC0000830704700EB0110083070470846FFF7F8
:101AD00083B8000010B50446024B03600CF0FCFC18
:101AE000204610BDA8B0020810B50446FFF7F2FF6B
:101AF0002046142127F08CFB204610BD10B504466B
:101B0000024B03600CF0E8FC204610BD74B00208E4
:101B100010B50446FFF7F2FF2046F42127F078FBCA
:101B2000204610BD10B50446024B03600CF0D4FCF7
:101B3000204610BD40B0020810B50446FFF7F2FF82
:101B40002046182127F064FB204610BD10B504463E
:101B5000074B036000F59070FFF7BCFF04F12C0009
:101B6000FFF7CCFF04F11400FFF7DCFF204610BDA7
:101B7000DCB0020808B50248FFF7E8FF08BD00BF67
:101B8000A454232010B50446FFF7E0FF20464FF48D
:101B9000257127F03DFB204610BD00002DE9F341E3
:101BA000FFF720FA00240546FFF720FA23460146F6
:101BB00022462846009412F003FD244B244A204676
:101BC0001A60244EFFF79EFA012123481BF0BEFE47
:101BD000224812F05DFC3368DB0730D4204C214BE7
:101BE00004F59C7504F1140004F12C0804F59077B9
:101BF0006060C4F80880E760256123600CF06EFC2B
:101C0000194B404663610CF069FC184B3846E3629F
:101C10000CF064FC164B04F59A70C4F82031FEF702
:101C200029FD224604F59A712846FEF76FFD2846E5
:101C3000FEF7D2FF01230F48336027F013FB0E4855
:101C400002B0BDE8F04100F052B800BF38352520A1
:101C500084652320A054232088652320082823207E
:101C6000A4542320DCB0020840B0020874B002087B
:101C7000A8B00208751B0008DC64232025F0D8BF3B
:101C800001480CF03ABF00BFDC642320F7B50E4DCD
:101C90000E4B0F4F0F4E28463B60FFF753FD30466B
:101CA0001BF046FE4FF448734FF4F0720A4CCDE936
:101CB000003229463B463246204612F04BFF074B86
:101CC000236003B0F0BD00BF3C572320C8B1020819
:101CD0003857232088652320DC642320F0B00208D5
:101CE0000148FFF7FBBC00BF3C5723207047FFF7BC
:101CF000A7BAFFF797BAFFF79BBAFFF703BBFFF747
:101D000003BBFFF769BAFFF739BBFFF743BBFFF728
:101D10006FBAFFF7F3BAFFF7F3BA0CF085BE10B550
:101D20000446A82127F074FA204610BD704770477A
:101D3000704770477047000008B501220821064827
:101D400005F050FF11200022072105F087FCBDE8B7
:101D50000840112005F0B6BC0010024230B587B033
:101D60000D4614460021102202A827F0B0FB174BA5
:101D70001A7812B9002007B030BD00221A7064230F
:101D800002AA009382211023114804F04BFC002882
:101D9000F0D19DF80830482BECD19DF80B300D4860
:101DA00003F00F029DF80A3043EA02230A4A136047
:101DB0009DF80D2002F00F019DF80C2042EA01224F
:101DC00002602B60036801202360D4E7D86E2320D3
:101DD0006C3B2520E06E2320DC6E232010B50446EA
:101DE000042127F015FA204610BD0000402802BF4C
:101DF0000122014B1A707047D86E232000B589B0BC
:101E000020220021684627F062FB04221A480023A2
:101E1000826101221949C0E90233C0E90013C0E917
:101E20000433037780F82430826280F82C30C0E9D4
:101E30000D3380F84030836643640365C36380F8E4
:101E4000543006F0E9FD08B100F063FF06230C4AA8
:101E50006946CDE9002300230A4A0748CDE902324A
:101E60000422CDE9042306F0B9FF08B100F051FFC8
:101E700009B05DF804FB00BFD03825200080024285
:101E80000008002E0000FFFF00B589B020220021CD
:101E9000684627F01CFB04221A48002382610122B5
:101EA0001949C0E90233C0E90013C0E904330377DC
:101EB00080F82430826280F82C30C0E90D3380F83D
:101EC0004030836643640365C36380F8543006F092
:101ED000A3FD08B100F01DFF06230C4A6946CDE9B9
:101EE000002300234FF6FF72CDE902320422054899
:101EF000CDE9042306F072FF08B100F00AFF09B033
:101F00005DF804FB44382520008102420100008076
:101F1000142210B50446C2B000210DEB020027F0D8
:101F2000D6FAE02200210AA827F0D1FA2368384A1D
:101F3000934239D100234FF40042CDE90A234FF4F4
:101F400080430AA8379307F08FFE08B100F0E1FE46
:101F5000304A13680133012B13600CD12E4BD3F898
:101F60008C2042F48062C3F88C20D3F88C3003F4C8
:101F700080630193019B284BD3F88C2042F001022F
:101F8000C3F88C20D3F88C3003F001030293029B3A
:101F9000C02305930322002305A92048CDE9062389
:101FA00005F028FD42B010BD1D4A9342FAD100232E
:101FB0004FF40042CDE90A234FF480430AA8379337
:101FC00007F052FE08B100F0A4FE124A1368013374
:101FD000012B13600CD1104BD3F88C2042F480629B
:101FE000C3F88C20D3F88C3003F480630393039BF5
:101FF000094BD3F88C2042F00102C3F88C20D3F8AF
:102000008C3003F001030493049B0823C1E700BF55
:1020100000800242E46E2320000C024600000242CF
:102020000081024208B54FF4E1331548154AC0E972
:10203000002300230C22C0E902330361C0E9052319
:10204000C0E90733C0E9093305F0A5F808B100F08D
:1020500060FE00210A4809F004FC08B100F059FEB6
:102060000021074809F022FC08B100F052FE0448A4
:1020700009F0D8FB18B1BDE8084000F04ABE08BD21
:102080005C3925200038014008B54FF4E13315488C
:10209000154AC0E9002300230C22C0E90233036182
:1020A000C0E90523C0E90733C0E9093305F073F837
:1020B00008B100F02EFE00210A4809F0D2FB08B159
:1020C00000F027FE0021074809F0F0FB08B100F0FE
:1020D00020FE044809F0A6FB18B1BDE8084000F056
:1020E00018BE08BD843A25200048004008B54FF4CA
:1020F000E1331648164AC0E9002300230C22194692
:10210000C0E905231A46C0E902330361C0E9073379
:10211000C0E9093309F044FB08B100F0FAFD0021E1
:102120000A4809F09EFB08B100F0F3FD00210748C2
:1021300009F0BCFB08B100F0ECFD044809F072FBAB
:1021400018B1BDE8084000F0E4BD08BDF039252015
:102150000064004070B50446C6B01422002109A8EE
:1021600027F0B5F9E02200210EA827F0B0F9236886
:10217000634A934232D1012200230EA8CDE90E23F7
:1021800007F072FD08B100F0C4FD5E4B5E48D3F865
:10219000A42009A942F48042C3F8A420D3F8A420C3
:1021A00002F480420192019AD3F88C2042F040025E
:1021B000C3F88C20D3F88C304FF4C06203F0400396
:1021C0000293029B0223CDE909230023CDE90B33BF
:1021D00007230D9305F00EFC46B070BD4B4A9342A9
:1021E00045D1042200230EA8CDE90E2307F03CFDC3
:1021F00008B100F08EFD434B0226D3F89C2000244A
:1022000042F48022C3F89C20D3F89C20072502F4D6
:1022100080220392039AD3F88C2009A942F002028B
:10222000C3F88C20D3F88C20394802F002020492C3
:10223000049AD3F88C2042F00402C3F88C20D3F81F
:102240008C30CDE90B4403F004030593059B4FF458
:1022500080630D95CDE9093605F0CCFB2023CDE94F
:102260000B44CDE909360D9509A92A48B2E72A4A57
:102270009342B1D14FF0005200230EA8CDE90E23B6
:1022800007F0F2FC08B100F044FD1E4B0226D3F823
:102290009C20002442F00072C3F89C20D3F89C20BC
:1022A000072502F000720692069AD3F88C2009A93D
:1022B00042F01002C3F88C20D3F88C20174802F0AB
:1022C00010020792079AD3F88C2042F40072C3F8E8
:1022D0008C20D3F88C30CDE90B4403F400730893C1
:1022E000089B12230D95CDE9093605F083FB1023D9
:1022F000CDE90B44CDE909360D9509A9084869E7F0
:1023000000380140000C024600180242004800401C
:102310000004024200080242006400400010024231
:102320000024024208B51448144B01220360A3F1B3
:102330007663A3F57B23A3F2146343600023C0E913
:102340000232C0E90433C0E90633036204F00EF937
:1023500008B100F0DEFC0021074804F0BFFF08B11F
:1023600000F0D7FC0021044804F0E4FF18B1BDE8F8
:10237000084000F0CEBC08BD6C3B25200054004056
:1023800008B51448144B01220360A3F17663A3F54A
:102390007B23A3F6142343600023C0E90232C0E983
:1023A0000433C0E90633036204F0E0F808B100F03A
:1023B000B0FC0021074804F091FF08B100F0A9FC2F
:1023C0000021044804F0B6FF18B1BDE8084000F051
:1023D000A0BC08BD183B25200058004008B5144893
:1023E000144B01220360A3F17663A3F57E23A3F2CD
:1023F000146343600023C0E90232C0E90433C0E93A
:102400000633036204F0B2F808B100F082FC002148
:10241000074804F063FF08B100F07BFC002104488A
:1024200004F088FF18B1BDE8084000F072BC08BD98
:10243000C03B25200084004010B50446C4B01422DF
:10244000002107A827F043F8E02200210CA827F07C
:102450003EF82368514A934233D1402200230CA80E
:10246000CDE90C2307F000FC08B100F052FC4C4C05
:102470004FF4C04ED4F88C30002243F04003C4F82F
:102480008C30D4F88C3007A903F040030193019BF2
:102490001223CDE907E30323CDE9092304234148AF
:1024A0000B9305F0A7FAD4F89C3043F40013C4F85A
:1024B0009C30D4F89C3003F400130293029B44B088
:1024C00010BD394A934232D1802200230CA8CDE9B5
:1024D0000C2307F0C9FB08B100F01BFC304C302086
:1024E000D4F88C304FF0000C43F08003C4F88C30EB
:1024F000D4F88C3007A903F080030393039B1223C5
:10250000CDE907030323CDE909C3042327480B932F
:1025100005F070FAD4F89C3043F48003C4F89C3082
:10252000D4F89C3003F480030493049BC7E7204A4B
:102530009342C4D14FF4800200230CA8CDE90C23B0
:1025400007F092FB08B100F0E4FB154CC022D4F870
:102550008C30002143F00203C4F88C30D4F88C3066
:10256000144803F002030593059B1223CDE90723CA
:102570000323CDE90913052307A90B9305F03AFAC4
:10258000D4F8A03043F00203C4F8A030D4F8A0304F
:1025900003F002030693069B91E700BF005400403E
:1025A000000C02460018024200580040001C024283
:1025B000008400400004024208B54FF47A700BF02A
:1025C0003FFBFAE708B5074C074D002305491A46BB
:1025D00028680BF02BFC23786420013323700BF068
:1025E0002FFBF2E7E86E2320143C2520704770474C
:1025F0007047000008B50E4A012102200BF0D6FBFF
:102600000C4B0D4A186000210C480BF0CDFA0C4B16
:102610000C4A186000210C480BF0C6FA0B4B0C4A10
:10262000186000210B480BF0BFFA0B4B186008BD77
:1026300050B20208143C2520FCB10208B92500085C
:10264000203C2520D8B102085DBE0008183C25209A
:1026500068B20208C52500081C3C252008B50548BD
:10266000054B036005F0A4F818B1BDE8084000F080
:1026700050BB08BD243C252000F0024007B5194B93
:1026800002689A422BD1184B0521D3F88820842068
:1026900042F48012C3F88820D3F8882002F4801214
:1026A0000092009AD3F8882042F40012C3F88820E0
:1026B000D3F88830002203F400130193019B04F047
:1026C000CDFF842004F0FEFF00220521852004F0C8
:1026D000C5FF852003B05DF804EB04F0F3BF03B041
:1026E0005DF804FB00F00240000C02461C2210B50D
:1026F00000249AB000210DEB020026F0E8FE14221F
:10270000002102A826F0E3FE302221460EA8019403
:1027100026F0DDFE2A482B4B7F22C0E90034FF2340
:102720004FF48001C0E902234FF00043C0E90413D5
:102730004FF080438461C0E90734446204F070F8CC
:1027400008B100F0E6FA07A91D480794CDE90A444C
:102750000C9401F075FD08B100F0DBFA00230122B2
:1027600002A91748ADF808308DF80A30CDE90533D5
:1027700004F0B6F808B100F0CCFA134B1AA941F8EE
:10278000643D01220E4804F017F908B100F0C1FAC7
:1027900000230122ADF838308DF83A300F93CDE99F
:1027A000133316934FF400730EA905488DF85C207F
:1027B000199304F04DF908B100F0ABFA1AB010BD4E
:1027C000303C2520007800460101010010B5044688
:1027D000C0B01422002103A826F079FEE0220021D7
:1027E00008A826F074FE2268214B9A423DD10023AE
:1027F0004FF48022CDE908234FF4807308A83C935E
:1028000007F032FA08B100F084FA1A4B03A9D3F8A2
:10281000F020194842F40042C3F8F020D3F8A82071
:1028200042F40012C3F8A820D3F8A82002F4001242
:102830000192019AD3F8D82042F40012C3F8D820AC
:10284000D3F88C2042F00202C3F88C20D3F88C30ED
:10285000042203F002030293029B0223CDE9032327
:102860000023CDE9053305F0C5F840B010BD00BF29
:1028700000780046000C02460004024208B500231E
:102880000F48104A1021C0E900234FF44072C0E9FC
:1028900002230122037443748374C0E90512C0E962
:1028A0000722C0E90922C0E90B22C0E90D33C36346
:1028B00009F022F818B1BDE8084000F02ABA08BDB6
:1028C000603C252000A4004010B50446C0B014228E
:1028D000002103A826F0FBFDE022002108A826F035
:1028E000F6FD22681D4B9A4235D100234FF000625D
:1028F000CDE908234FF0807308A82C9307F0B4F9B2
:1029000008B100F006FA164B0021D3F8A0201548B4
:1029100042F40072C3F8A020D3F8A02002F40072A1
:102920000192019AD3F88C2042F00202C3F88C2065
:10293000D3F88C304FF4407203F002030293029BF1
:102940000223CDE903230323CDE90513092303A9BA
:10295000079305F04FF840B010BD00BF00A4004041
:10296000000C02460004024210B500248EB0302252
:10297000002102A826F0ABFD1848194B0194036012
:1029800004F006F908B100F0C4F90222012302A9FB
:10299000CDE907231148002202948DF810408DF8EC
:1029A0001140CDE90544099404F006F908B100F09E
:1029B000B0F900230EA941F8343D084801F023FC8A
:1029C00008B100F0A6F9102202A9044804F0F4F8B6
:1029D00008B100F09EF90EB010BD00BFC43C252028
:1029E0000018024610B50446C0B01422002103A806
:1029F00026F06DFDE022002108A826F068FD22687F
:102A00001B4B9A4232D100231A4A4FF48041CDE940
:102A100008234FF4004308A8CDE9351307F024F943
:102A200008B100F076F9144B03A9D3F894201348A9
:102A300042F04002C3F89420D3F8942002F0400200
:102A40000192019AD3F88C2042F00102C3F88C2045
:102A5000D3F88C30302203F001030293029B03234E
:102A6000CDE903230023059304F0C4FF40B010BD5B
:102A70000018024600800010000C024600000242CE
:102A800070B51F4B88B0D3F89C20694642F0010214
:102A9000C3F89C20D3F89C30064603F00103019351
:102AA00002A8019B02F008FB02F0D6FA4FF0804327
:102AB000144C236040F2E733E360134BB0FBF3F0B8
:102AC00000230138606020462361A36002F0D4FE39
:102AD000054668B9204602F0E3FC054640B90F2ED2
:102AE0000CD8024631462D2004F0B8FD074B1E607D
:102AF0002D2004F0E7FD284608B070BD0125F7E75A
:102B0000000C0246D83C252040420F001428232008
:102B100008B500230448036004F01AFE18B1BDE8AC
:102B2000084000F0F6B808BD243D2520074B82B0D0
:102B3000D3F88C2042F40032C3F88C20D3F88C30C8
:102B400003F400330193019B02B07047000C02466E
:102B500070B59EB06022002106A826F0B8FC1822AD
:102B60000021684626F0B3FC4FF4403001F0AEFA85
:102B7000044608B172B6FEE706F098FE224A8121AB
:102B8000D2F8F030102523F01803C2F8F0302F22CD
:102B90004FF4A023CDE906234FF48073CDE9081349
:102BA0004FF4805311934FF080630326CDE90A530D
:102BB0004FF0500C02230425082206A80C94CDE9FE
:102BC000143617941695CDE918C2CDE91A33CDE91C
:102BD0001C4401F0C5FD08B172B6FEE71F23CDE924
:102BE0000200CDE9040029466846CDE9003601F02F
:102BF0004FFC024608B172B6FEE74FF0807101F05B
:102C000097FB1EB070BD00BF000C024607B506F072
:102C100005FFFFF79DFF01F0CDFA00236846CDE9DF
:102C2000003306F04BFE06F093FE01F0CBFA0220D3
:102C300001F094FA044608B172B6FEE700F06CF8B1
:102C4000FFF7DCF8FFF720F901F0F6F901F0A8F83A
:102C5000FFF78AFE00F028FA00F038FA00F0B0FB27
:102C6000FFF70CFEFFF7FAFCFFF752FFFFF75AFBE6
:102C7000FFF786FBFFF7B2FB00F088FD00F0A0F93C
:102C800001F0BCF800F0BCFC00F0D6FBFFF72EFD15
:102C900000F072FA00F0ACFA00F0EEFE00F060FF17
:102CA00000F084FD00F098FF01F00CF8FFF7BAF98E
:102CB000FFF7EAF9FFF71AFA00F02DF809F0C7F864
:102CC00009F0C4F805212246112004F0C7FC1120A8
:102CD00004F0F8FC2146094803F0E6FA08B172B6A0
:102CE000FEE701228021064804F07CFF0AF026FF5F
:102CF000FFF780FC0AF038FFFEE700BF0040252008
:102D0000001C02420368B3F1804F01D106F0B0BE4F
:102D1000704772B6FEE770472DE9F04F93B014226A
:102D200000210DA826F0D3FB9A4BDFF88482D3F85C
:102D30008C20DFF8809242F01002C3F88C20D3F888
:102D40008C20404602F010020392039AD3F88C20A4
:102D5000802142F00202C3F88C20D3F88C20DFF8E7
:102D600058B202F002020492049AD3F88C20DFF8E1
:102D70004CA242F04002C3F88C20D3F88C200024EF
:102D800002F040020592059AD3F88C20824F42F05F
:102D90000802C3F88C20D3F88C20022502F0080228
:102DA0000692069AD3F88C20012642F00402C3F85A
:102DB0008C20D3F88C2002F004020792079AD3F8F3
:102DC0008C2042F00102C3F88C20D3F88C2002F052
:102DD00001020892089AD3F88C2042F08002C3F8CE
:102DE0008C20D3F88C2002F080020992099AD3F843
:102DF0008C2042F48072C3F88C20D3F88C2002F42B
:102E000080720A920A9AD3F88C2042F40072C3F8B6
:102E10008C20D3F88C2002F400720B920B9AD3F81A
:102E20008C2042F02002C3F88C20D3F88C30002292
:102E300003F020030C930C9B04F0D4FE48460022C0
:102E4000082104F0CFFE554B002218464021019383
:102E500004F0C8FE584600224FF4817104F0C2FE0F
:102E600050460022102104F0BDFE4FF400424C4BAE
:102E70000DA93846CDE90D230F9404F0BBFD4FF4A6
:102E800080720DA93846CDE90D25CDE90F45119485
:102E900004F0B0FD08220DA940460D920092CDE944
:102EA0000E4404F0A7FD80214046CDE90D160DA982
:102EB000CDE90F4404F09EFD4FF4C0510322CDE94B
:102EC0000D1538460DA910920F9404F093FD009A49
:102ED0000DA94846CDE90D26CDE90F5404F08AFD31
:102EE00009220DA92F48CDE90D240F9404F082FD8D
:102EF0004022019B0DA918460D920092CDE90E6467
:102F0000109404F077FD4FF480630322CDE90D3572
:102F10000A230DA93846CDE910230F9404F06AFD69
:102F2000009A214B0DA948460D92CDE90E3604F0CA
:102F300061FD4FF400730DA93846CDE90D340F94AF
:102F400004F058FD4FF4817310270DA95846CDE9C0
:102F50000D36CDE90F4404F04DFD0DA95046CDE9E5
:102F60000D76CDE90F5404F045FD4FF400620C4B93
:102F70000DA94046CDE90D230F9404F03BFD0DA9AA
:102F80000A48CDE90D740F9404F034FD13B0BDE888
:102F9000F08F00BF000C02460000024200200242F7
:102FA000000011100024024200002110000802421B
:102FB000001C0242001002420018024200140242A9
:102FC00008B500230C480D4AC0E90233C0E90023CC
:102FD0004FF6FF724261C0E908234FF4000203611B
:102FE000C0E90A23C0E90C3305F01EFC18B1BDE8A6
:102FF0000840FFF78EBE08BD683D252000940040C4
:1030000030B50446C1B01422002103A826F05FFAAF
:10301000E022002108A826F05AFA22681F4B9A42A3
:103020003AD14FF48062002308A8CDE9082306F0C6
:103030001BFE08B1FFF76DFE194B0224D3F8A02048
:10304000002542F02002C3F8A020D3F8A02003A955
:1030500002F020020192019AD3F88C20114842F02C
:103060000202C3F88C20D3F88C30CDE9034403F07E
:1030700002030293029B0E23CDE90555079304F04A
:10308000B9FC4FF4004303A90648CDE90334CDE968
:103090000555079404F0AEFC41B030BD00940040EB
:1030A000000C02460004024208B500230548064A07
:1030B000C0E9002304F0C6FB18B1BDE80840FFF7E3
:1030C00028BE08BDE43D25200014034008B50023B8
:1030D0000548064AC0E9002304F0B4FB18B1BDE876
:1030E0000840FFF716BE08BDB83D25200018034074
:1030F0000368124A82B093420ED1114BD3F8882054
:1031000042F08042C3F88820D3F8883003F080432F
:103110000093009B02B070470A4A9342FAD1084BD1
:10312000D3F8882042F40012C3F88820D3F88830FE
:1031300003F400130193019BECE700BF001403406C
:10314000000C0246001803400A4B0F21D3F89420CC
:103150006FF0010042F00402C3F894200022D3F87B
:10316000943082B003F004030193019B02B004F099
:1031700075BA00BF000C02461FB54FF480031A4811
:103180001A4A0024C0E900230323C0E903344FF0A6
:103190008063C0E906340723C3624FF08043CDE962
:1031A0000144039484604461C0E908448462C0E936
:1031B0000D34C463C0E91244C0E91444C0E91644A4
:1031C000046608F089FC08B1FFF7A3FD4FF08053B7
:1031D00001A905480194CDE9023404F058F808B17A
:1031E000FFF797FD04B010BDA03E25200030014040
:1031F0001FB54FF480031A481A4A0024C0E900237F
:103200000323C0E903344FF08063C0E90634072389
:10321000C3624FF08043CDE901440394846044616C
:10322000C0E908448462C0E90D34C463C0E91244B3
:10323000C0E91444C0E91644046608F04DFC08B126
:10324000FFF767FD4FF0805301A905480194CDE9D0
:10325000023404F01CF808B1FFF75BFD04B010BDA8
:10326000103E252000380040142210B50446C2B09C
:1032700000210DEB020026F02AF9E02200210AA825
:1032800026F025F92368384A934236D100234FF4BB
:103290000002CDE90A234FF480130AA83B9306F0FD
:1032A000E3FC08B1FFF735FD304B1C20D3F8A42018
:1032B000002442F48052C3F8A420D3F8A42005A926
:1032C00002F480520192019AD3F88C2042F040021D
:1032D000C3F88C20D3F88C3003F040030293029B98
:1032E0000223CDE905030323CDE907430523204845
:1032F000099304F07FFB42B010BD1E4A9342FAD1FD
:1033000000234FF08072CDE90A234FF480330AA8DE
:103310003C9306F0A9FC08B1FFF7FBFC134B00211E
:10332000D3F89C20144842F48042C3F89C20D3F880
:103330009C2002F480420392039AD3F88C2042F43A
:103340008072C3F88C20D3F88C300E2203F4807383
:103350000493049B0223CDE905230323CDE907133E
:10336000052305A90993C4E700300140000C02467B
:10337000001802420038004000200242FEE7FEE74B
:10338000FEE7FEE7FEE77047402004F031BC000096
:10339000014802F0E6B800BFD83C2520014804F0FF
:1033A00023BA00BF243C2520014804F030BA00BFF6
:1033B000243C2520014806F0A9B900BFA0412520E2
:1033C00008B500230E480F4AC0E91033C0E9123394
:1033D000C0E91433C0E90023C0E90233C0E9063371
:1033E00004F066FA08B1FFF794FC0121044804F0E8
:1033F0009FFA18B1BDE80840FFF78BBC08BD00BFBD
:10340000303F252000B002400268094B82B09A424A
:103410000CD1084BD3F8882042F48022C3F88820CE
:10342000D3F8883003F480230193019B02B07047E6
:1034300000B00240000C024608B500230548064AC9
:10344000C0E9002306F08CFA18B1BDE80840FFF788
:1034500060BC08BD903F252000080C4210B5044612
:10346000BAB0E022002102A826F031F822680E4B03
:103470009A4217D14FF40022002302A8CDE902237B
:1034800006F0F2FB08B1FFF744FC084BD3F88C20A0
:1034900042F48022C3F88C20D3F88C3003F48023CC
:1034A0000193019B3AB010BD00080C42000C02468B
:1034B0001422F0B50446C3B000210DEB020026F043
:1034C00006F8E02200210AA826F001F82268424B03
:1034D0009A427FD14FF0806200230AA8CDE90A23E7
:1034E00006F0C2FB08B1FFF714FC3C4B0324D3F8F1
:1034F0008C20022642F40012C3F88C20D3F88C20D2
:10350000002502F400120092009AD3F8902005A939
:1035100042F01002C3F89020D3F89020304802F017
:1035200010020192019AD3F88C200A2742F020025F
:10353000C3F88C20D3F88C2002F020020292029A69
:10354000D3F88C2042F00402C3F88C20D3F88C20EE
:1035500002F004020392039AD3F88C2042F0010295
:10356000C3F88C20D3F88C30CDE9075403F0010365
:103570000493049B4FF480630994CDE9053604F06D
:1035800039FA4FF4707305A91548CDE90536CDE930
:103590000754099704F02EFA0E2305A91148CDE926
:1035A0000536CDE90754099704F024FA062305A946
:1035B0000D48CDE90536CDE90754099704F01AFA0C
:1035C000012305A90748CDE90536CDE9075409943B
:1035D00004F010FA43B0F0BD00140D42000C024696
:1035E000001402420008024200000242012208B513
:1035F00011460AF020FD003018BF012008BD000070
:1036000030B5002495B01822002105A825F05FFFF1
:103610000BA8CDE903440AF087FC042359485A4A11
:103620004FF08071C0E900232023C0E90313022377
:10363000C0E90534C0E909344FF08053C0E90B34C8
:1036400008238460C0E90744C0E90D34C46304F072
:10365000DFFB08B1FFF75DFB0123CDE905330793DD
:103660004FF0011341F28832089305A903F57F0357
:103670004448099304F0FCFD08B1FFF74AFB00231E
:1036800003A94048CDE9033305F088F808B1FFF7F6
:1036900040FB00223B4811460AF074FE0246002817
:1036A00038D1014637480AF09CFE024690BB012102
:1036B00034480AF067FE024660BB012131480AF037
:1036C00090FE38BB01222F4811460AF05BFE08BB72
:1036D00001222C4811460AF084FED8B9642006F075
:1036E000D9F90022274811460AF037FC08B1FFF744
:1036F00010FB0022234811460AF003FD024660B188
:10370000FFF707FB1F48FFF771FF08B1FFF701FB49
:1037100015B030BDFFF7FDFAE3E70723014600933C
:1037200018484FF440730AF06BFD02460028E7D1B9
:10373000014614480AF0E5FC03460028E0D10124C4
:103740000246014600940F480AF05AFD054600283B
:10375000D6D1282006F09EF92A46214609480AF0CB
:10376000FCFB03460028CBD102AA00922146024668
:1037700004480AF0A2FD0028C2D19DF80830A342F7
:10378000BED1BFE7A43F252000140D4208B500209C
:1037900008F08EFA08B1FFF7BCFA08F099FA18B1F0
:1037A000BDE80840FFF7B5BA08BD00001FB500240A
:1037B0000D480E4BCDE90144C0E900344FF6FF73CC
:1037C00003948460C360846102F056F808B1FFF787
:1037D000A0FA01A904480194039403F0D5FD08B1AF
:1037E000FFF797FA04B010BD4C40252000100040B0
:1037F00010B5044688B01422002103A825F067FE06
:1038000023681C4A934223D11B4B03A9D3F89C2065
:103810001A4842F00202C3F89C20D3F89C2002F020
:1038200002020092009AD3F88C2042F00402C3F8FE
:103830008C20D3F88C30802203F004030193019B89
:103840000223CDE90323079304F0D4F808B010BD98
:103850000B4A9342FAD1084BD3F89C2042F008025D
:10386000C3F89C20D3F89C3003F008030293029B1A
:10387000ECE700BF00040040000C024600080242D2
:10388000000C00400368124A82B093420ED1114BE3
:10389000D3F89C2042F01002C3F89C20D3F89C304F
:1038A00003F010030093009B02B070470A4A934252
:1038B000FAD1084BD3F8A42042F48032C3F8A420F4
:1038C000D3F8A43003F480330193019BECE700BFED
:1038D00000100040000C02460040014010B50446B4
:1038E00088B01422002103A825F0F1FD2268144BB2
:1038F0009A4222D1134B03A9D3F8A420124842F4D0
:103900000052C3F8A420D3F8A42002F4005201927C
:10391000019AD3F88C2042F48072C3F88C20D3F83B
:103920008C30102203F480730293029B1223CDE9A2
:1039300003230323079304F05DF808B010BD00BF14
:1039400000340140000C024600200242142230B52F
:1039500004468BB00DEB0200002125F0B8FD236872
:103960003D4A934217D13D4B2020D3F88C2005A926
:1039700042F01002C3F88C20D3F88C3003F010030F
:103980000093009B0223CDE905033548099304F019
:1039900031F80BB030BD334A934214D12F4B012183
:1039A000D3F88C20304842F48072C3F88C20D3F8CE
:1039B0008C3003F480730193019B0223CDE905133E
:1039C000099305A9E3E7294A93422CD1234B022509
:1039D000D3F88C20032442F48072C3F88C20D3F8EF
:1039E0008C2005A902F480720292029AD3F88C20EE
:1039F0001D4842F00202C3F88C20D3F88C300994A1
:103A000003F002030393039B2023CDE9053503F064
:103A1000F1FF0123CDE905350023CDE907330994F2
:103A200005A91348B3E7134A9342B2D10B4BD3F81D
:103A30008C2042F00202C3F88C20D3F88C304FF473
:103A4000804203F002030493049B0223CDE9052383
:103A50000E230993E4E700BF00040040000C024677
:103A600000100242000C00400020024200340140DD
:103A7000000402420040014030B595B014220021FC
:103A800008A825F024FD1022002400210DEB0200DF
:103A900025F01DFD1C2221460DA8CDE9014403940B
:103AA00025F015FD2C482D4B8460C0E900344FF003
:103AB000FF338461C0E9033401F03EFF08B1FFF732
:103AC00028F9254801F068FF08B1FFF722F9042121
:103AD000602300240225CDE908131F4808A9CDE979
:103AE0000A540C9402F0F0FA08B1FFF712F9002220
:103AF00004A91948CDE90445CDE9064402F0FCF8D3
:103B000008B1FFF706F90222012304A9CDE9042335
:103B10001148042202F0F0F808B1FFF7FAF8002487
:103B200001A90D480194039403F02EFC08B1FFF79E
:103B3000F0F8602308220DA90748CDE90D340F9451
:103B4000119401F0F2FF08B1FFF7E3F80248FFF724
:103B5000FDFE15B030BD00BFE4402520000400404C
:103B600010B500248AB01C22214603A8CDE90044E8
:103B7000029425F0ACFC1648164B8460C0E9003472
:103B80004FF0FF338461C0E9033401F0D5FE08B182
:103B9000FFF7BFF869460E480094029403F0F4FB67
:103BA00008B1FFF7B6F800236022CDE903230C2209
:103BB00007480DEB02010593079301F0B6FF08B12A
:103BC000FFF7A7F80248FFF7C1FE0AB010BD00BF1B
:103BD00098402520000C004010B500249AB01C220B
:103BE000214606A8CDE90044CDE90244CDE90444CC
:103BF00025F06DFC342221460DEB020025F067FC18
:103C00002E482F4B8460C0E900344FF6FF73C0E9A3
:103C10000544C0E9033401F05FFE08B1FFF779F80D
:103C200069462648CDE90044029403F0ADFB08B193
:103C3000FFF76FF80121002403AA2048CDE9031102
:103C4000059403F0A1FC08B1FFF763F8002206A970
:103C50001A48CDE90644CDE90844CDE90A440C945C
:103C600001F02EFF08B1FFF754F8042206A913480B
:103C700001F026FF08B1FFF74CF84FF480514FF4E4
:103C800000520023CDE911124FF000720DA90B482C
:103C9000CDE90D33CDE90F33CDE913331593CDE9DC
:103CA0001623CDE9183303F0E1FB08B1FFF731F833
:103CB0000248FFF74BFE1AB010BD00BF304125206F
:103CC00000340140102210B500249CB000210DEBFF
:103CD000020025F0FCFB1C22214608A8CDE9014486
:103CE000039425F0F4FB214634220FA825F0EFFBC6
:103CF0000423294829498460C0E9001340F2E733CE
:103D0000C0E90544C0E9033401F0B6FD08B1FFF78E
:103D100000F84FF4805304A91F48049302F090F870
:103D200008B1FEF7F6FF1C4801F006FE08B1FEF7E9
:103D3000F0FF002301A918480193039303F024FB2B
:103D400008B1FEF7E6FF0024602240F2E53308A93F
:103D5000CDE9082310482246CDE90A44CDE90C44B8
:103D60000E9401F0E2FE08B1FEF7D3FF4FF40053CA
:103D70000FA90948CDE90F44CDE911441394CDE9C9
:103D800014341B9403F072FB08B1FEF7C2FF024823
:103D9000FFF7DCFD1CB010BD0040252000400140B5
:103DA00008B50848084B036000238380C0E9053349
:103DB0000123036207F040FF18B1BDE80840FEF799
:103DC000A8BF08BD7C412520003002400268094B95
:103DD00082B09A420CD1084BD3F8882042F480522A
:103DE000C3F88820D3F8883003F480530193019BF3
:103DF00002B0704700300240000C024610B50024AB
:103E00008EB03422002101A825F061FB2248234B0B
:103E100040F22B3CC0E900340323C0E905330B23F7
:103E2000C0E9073340F2EB1340F2333EC0E909C367
:103E300040F2F313C0E902440461C0E90BE3848655
:103E400080F8364005F0E6FB08B1FEF762FF4FF45C
:103E5000F0730121CDE90431FF214FF48060CDE9F9
:103E6000061405214FF44872CDE908014FF00051C6
:103E7000CDE90224CDE90A120748002201A90194E4
:103E80000C93ADF834408DF8364005F0A0FC08B135
:103E9000FEF73FFF0EB010BDA04125200068014095
:103EA0002DE9F0430446C5B01422002107A825F0EF
:103EB0000EFBE02200210CA825F009FB2268574BDD
:103EC0009A4240F0A78000220223CDE90C2304236C
:103ED00003224B21CDE9172302230520CDE9191335
:103EE0000C23CDE91B034FF480230CA81F9305F08E
:103EF000BBFE08B1FEF70DFF494B0024D3F8A42008
:103F0000022642F08062C3F8A420D3F8A42003253F
:103F100002F080620192019AD3F88C20082742F0C7
:103F20001002C3F88C20D3F88C2007A902F01002ED
:103F30000292029AD3F88C203A4842F00802C3F861
:103F40008C20D3F88C204FF0400902F00802039235
:103F5000039AD3F88C204FF0070842F00402C3F80C
:103F60008C20D3F88C2002F004020492049AD3F837
:103F70008C2042F04002C3F88C20D3F88C2002F051
:103F800040020592059AD3F88C2042F02002C3F833
:103F90008C20D3F88C3003F020030693069B4FF659
:103FA0008173CDE90736CDE909450B9703F022FD72
:103FB0004FF60B7307A91C48CDE90736CDE9094533
:103FC0000B9703F017FD07A91848CDE90796CDE92F
:103FD0000945CDF82C8003F00DFD07A91448CDE963
:103FE0000796CDE90945CDF82C8003F003FD4FF489
:103FF000784307A90F48CDE90736CDE909450B9766
:1040000003F0F8FC87202246052103F027FB8720D8
:1040100003F058FB45B0BDE8F08300BF00680140E5
:10402000000C024600100242000C0242000802424C
:10403000001802420014024208B50548054B03600F
:1040400000F0C8F818B1BDE80840FEF762BE08BD30
:1040500048422520001002400268094B82B09A4273
:104060000CD1084BD3F8882042F00202C3F8882014
:10407000D3F8883003F002030193019B02B070472C
:1040800000100240000C024601220E48D0F8883091
:1040900043F47003C0F888300B4B1A600022DA61D9
:1040A0001A625A62196821F0A85121F4102119608E
:1040B0009A62196821F4802119601A654FF0006333
:1040C0008360704700ED00E0000C02461D4BDA6B88
:1040D00002F44032824208D1B2F5803F03D9DA6857
:1040E00042F48022DA60002070474FF47A71DA6877
:1040F000B0F5803F22F4E02288BF42F480221043D2
:10410000D860114B1A683223B2FBF1F25343B3FB70
:10411000F1F301331A460B49C868000404D40AB904
:1041200003207047013AF7E7002AF9D0054AD16B1E
:10413000090403D4002BF3D0013BF8E7002BD2D1C4
:10414000EEE700BF000802460C282320024BD86B84
:1041500000F44030704700BF000802464FF47A7107
:10416000124B1A683223B2FBF1F25343B3FBF1F363
:104170000F4A0133916850B921F002019160D16B6F
:1041800088070ED50BB903207047013BF7E741F0D4
:1041900002019160D16B890703D4002BF3D0013B5E
:1041A000F8E7002BEFD00020704700BF0C28232039
:1041B00000080246024A136943F000531361704736
:1041C00000080246024AD36A43F00103D3627047F3
:1041D0000008024610B5044698B190F8213003F06B
:1041E000FF021BB980F82020FFF736FF00200123D3
:1041F000C4E90100C4E903006062606184F8213011
:1042000010BD0120FCE710B5B0B1A9B10379DBB254
:10421000012B13D14279012A10D002220468437184
:104220000271626D096822F480020A4362650371BB
:1042300000234371184610BD0120FCE70220FAE775
:10424000D1E9003213430A4AD361D1E90232134360
:104250008A691343074A5362136A086903F0FF230C
:104260004969034343EA014313620020704700BFDA
:1042700000780046007C004637B52B4D0446D5F843
:1042800094305B0718D5FFF761FF20F48033B3F556
:10429000003F26D1B4F1805F2CBF00200120234ACB
:1042A000136823F00F0303431360136803F00F0335
:1042B000181A18BF01201BE0D5F8943043F004030E
:1042C000C5F89430D5F8943003F004030193019BB2
:1042D000FFF73CFFD5F8943023F00403C5F8943081
:1042E000D3E7B4F1805F05D2B0F5803F15D001204F
:1042F00003B030BDB4F1005F06D980B9B4F1405FBE
:104300008CBF00200120CAE7B4F1805F09D1B0F56D
:10431000803F0CBF01200220C1E70320BFE700203F
:10432000BDE70120BBE700BF000C024600200240B1
:1043300070B5124C86B0D4F88C30164643F00103A9
:10434000C4F88C30D4F88C304FF4807203F0010341
:104350000093009B0223CDE90123049300230D4623
:10436000074801A90393059303F044FBE16921F099
:10437000FE4131432943E16106B070BD000C0246A5
:104380000000024230B53E4BDA69996A12F00C0225
:1043900005D00C2A42D101F0030101293ED19968D0
:1043A000090254BFD3F8F4309B68364954BFC3F3B5
:1043B00003331B0F51F82300002A5BD000230C2A83
:1043C0005BD12F49B7EE006A8C6A8B6A8A6AC3F3A5
:1043D0000323013307EE903A8D6BC2F30013C5F34C
:1043E000CC056B43F8EEE76A07EE903A04F003035E
:1043F000022BFAEEE97A1DD0032B1BD04B6BC3F3D3
:10440000080307EE103AB8EEC77A77EE277A07EE80
:10441000100A77EE867AB8EE476A18E0DB6903F097
:104420000C03042B04D0082A25D000230020C6E763
:10443000154BFBE74B6BC3F3080307EE103AB8EEDE
:10444000C77A77EE277A77EE867A9FED106A86EE46
:10445000267A0B4B67EE877A5B6BC3F306630133F7
:1044600007EE103AB8EEC77AC7EE876AFCEEE67A36
:1044700017EE900A30BD0448FCE71846FAE700BF83
:10448000000C0246A4B202080024F4000024744B7D
:104490002DE9F3410E46044618B9012002B0BDE8EB
:1044A000F0819F4A136803F00F038B4275D3236892
:1044B000DA067ED423681B070DD59A4920690A6A5B
:1044C000120902F07002904281BF0B6A23F4E0638C
:1044D00043EA00130B6223685F070BD5914AE0683B
:1044E000116A01F07001884281BF136A23F07003E2
:1044F0000343136223689D070BD58A4AA068116A9B
:1045000001F00F01884281BF136A23F00F030343B8
:1045100013622368D80759D42368990700F1D9801A
:104520007F4A136803F00F03B34200F2DF80236871
:10453000590700F1E78023681A070DD579492069EA
:104540000A6A120902F0700290423FBF0B6A23F41C
:10455000E06343EA00130B622368DB060BD5714A64
:104560006069516A01F0700188423FBF536A23F0CD
:10457000700303435362FFF705FF6A4B6A4A1B6AE5
:1045800003F00F03D35CD840684B1860684B186881
:1045900002B0BDE8F041FEF773BA136823F00F03D1
:1045A0000B431360136803F00F038B427FF475AF66
:1045B0007DE75C4A6069516A01F07001884281BF01
:1045C000536A23F070030343536273E76268554BE9
:1045D000032A4CD1D3F8942052073BD40127D3F8B7
:1045E000942042F00402C3F89420D3F8943003F0EE
:1045F00004030193019B05F047FA4E4D8046EA689B
:10460000530329D4474B2FB1D3F8942022F004024E
:10461000C3F894201B6813F0007F3FF43EAF414D78
:104620006268EB6941F2883823F003031343EB61BE
:1046300005F02AFA63680746032B25D1EB6903F0DE
:104640000C030C2B3FF468AF05F01EFAC01B40456D
:10465000F4D90AE00027CEE7EB685804D2D405F07D
:1046600013FAA0EB08000228F6D9032016E7022A65
:104670001B6802D113F4003FCFE712B913F0040F07
:10468000CBE713F4806FC8E7022B0BD1EB6903F083
:104690000C03082B3FF440AF05F0F6F9C01B404572
:1046A000F4D9E2E77BB9EB6913F00C0F3FF434AFB8
:1046B00005F0EAF9C01B4045F5D9D6E705F0E4F965
:1046C000C01B4045D1D8EB6903F00C03042BF5D196
:1046D00022E7144AA068116A01F00F0188423FBF27
:1046E000136A23F00F030343136219E7136823F0DF
:1046F0000F0333431360136803F00F03B3427FF4D7
:10470000CCAE14E7074AE068116A01F070018842F4
:104710003FBF136A23F07003034313620BE700BF2C
:1047200000200240000C02468CB202080C28232014
:10473000142823200008024608B5FFF723FE054B86
:10474000054A1B6A03F00F03D35CD840034B186083
:1047500008BD00BF000C02468CB202080C282320C2
:104760002DE9FF41044608B9012049E0A84BDE6964
:104770009F6A036806F00C06D80607F0030740F1AD
:10478000A180E3691EB10C2E7BD1012F79D1002BC2
:10479000EAD09F4D606AAB68190256BFD5F8F43075
:1047A000AB681B0403F07043984239D9B6B1AB68CB
:1047B00043F40003AB60AB68626A23F070431343B9
:1047C000AB60636A226AB3F1404F0CD2002B1ADA55
:1047D000EB6823F4787343EA421308E0FFF74CFDDB
:1047E0000028E4D0C0E7EB6823F01F031343EB601D
:1047F000FFF7A2FF874B1868FEF742F9002861D047
:1048000004B0BDE8F081B3F1804FEB682BBF23F417
:10481000F84323F4782343EA822343EAC233E6E7EA
:10482000AB6843F40003AB60AB68626A23F070438B
:104830001343AB60636A226AB3F1404F0CD3EB6859
:1048400023F01F031343EB60002ED1D1606AFFF702
:1048500013FD0028CCD087E7002B05DAEB6823F4A2
:10486000787343EA4213EEE7B3F1804FEB682BBF56
:1048700023F4F84323F4782343EA822343EAC23340
:10488000E1E7634D002B77D02B6843F001032B60E9
:1048900005F0FAF880462B685A074FD5AB6843F409
:1048A0000003AB60AB68626A23F070431343AB60F4
:1048B000636A226AB3F1404F48D3EB6823F01F03C9
:1048C0001343EB602368DD0767D42368980700F182
:1048D000BF802368180740F13A814D4BD3F89420EC
:1048E000510700F1F3800126D3F8942042F004022E
:1048F000C3F89420D3F8943003F004030193019B90
:10490000454DAB6ADA0740F1E3806369404D002B07
:1049100040F0EF80D5F8F03023F0A053C5F8F03028
:1049200005F0B2F80746D5F8F0301B0140F10781D9
:1049300005F0AAF8C01B0528F5D905E005F0A4F894
:10494000A0EB08000228A6D9032059E7002B05DABE
:10495000EB6823F4787343EA4213B2E7B3F1804F74
:10496000EB6804D323F4F84343EA8223A9E723F452
:10497000782343EAC233A4E72B6823F001032B60BA
:1049800005F082F880462B685B079BD505F07CF824
:10499000A0EB08000228F6D9D6E7082E626803D0FB
:1049A0000C2E04D1032F02D1002A8ED1DCE6B2F501
:1049B000803F174B15D11A6842F480321A60636841
:1049C000002B36D005F060F88046114D2B68990316
:1049D0003FF57BAF05F058F8A0EB08006428F5D947
:1049E000B2E7B2F5A02F08D11A6842F480221A600B
:1049F0001A6822F480121A60DDE7B2F5A81F1A685F
:104A00000CD142F480221A601A6842F48012F2E754
:104A1000000C0246142823200008024622F48032AB
:104A20001A601A6822F480221A601A6822F480122E
:104A3000C4E705F029F880466F4D2B689A037FF58F
:104A400044AF05F021F8A0EB08006428F5D97BE716
:104A5000042EE36803D00C2E0DD1022F0BD1002BB6
:104A60003FF482AE644A2169136923F4F81343EAE0
:104A7000014313612DE7604DBBB12B6843F4807394
:104A80002B6005F001F806462B685B0507D52B69FE
:104A9000226923F4F81343EA02432B6119E704F077
:104AA000F3FF801B0228EFD94EE72B6823F48073B5
:104AB0002B6004F0E9FF06462B685F057FF509AF20
:104AC00004F0E2FF801B0228F6D93DE7002617E735
:104AD000AB6A43F00103AB6204F0D6FF0746AB6A52
:104AE000DB073FF512AF04F0CFFFC01B0228F6D959
:104AF0002AE7D5F8F030A16903F08052914210D036
:104B000003F04062B2F1006F3FF42EAE580148D47A
:104B1000394AA169D2F8F03023F080530B43C2F830
:104B2000F030354DD5F8F03043F08063C5F8F03003
:104B300004F0AAFF0746D5F8F0301A0144D536B183
:104B40002D4AD2F8943023F00403C2F8943023683D
:104B50005D0740F18E80284BD3F89420500739D45C
:104B60000126D3F8942042F00402C3F89420D3F82D
:104B7000943003F004030293029B204DAB6AD907E3
:104B80002AD5A2681C4B12F0010F39D1D3F8F020BE
:104B900022F00102C3F8F020D3F8F02022F0040242
:104BA0003BE0D5F8F03023F0A053C5F8F03004F026
:104BB0006BFF0746D5F8F0301901A9D504F064FF62
:104BC000C01B0528F6D9BFE604F05EFFC01B052810
:104BD000B1D9B9E60026D0E7AB6A43F00103AB6276
:104BE00004F052FF0746AB6ADA07CAD404F04CFF60
:104BF000C01B0228F7D9A7E6000C024600080246AF
:104C000012F0040FD3F8F0201EBF42F00402C3F8E4
:104C1000F020D3F8F02042F00102C3F8F020A3689E
:104C2000002B00F0DC8004F02FFF41F288380746AB
:104C3000A44DD5F8F0309B0740F1B180A36813F084
:104C4000800FD5F8F03000F0B88041F2883843F09A
:104C50008003C5F8F0309B4DD5F8F030180540F1D1
:104C6000A58036B1974AD2F8943023F00403C2F8F5
:104C700094302368990600F1DB8023681A0600F15E
:104C8000FC802368580600F12381A06B00283FF4C4
:104C9000B7AD8C4DEB6903F00C030C2B00F08A814F
:104CA0002B68022823F080732B6040F06F8104F0A2
:104CB000EBFE0646296811F0007140F05981D5F8E5
:104CC000943058070CD40121D5F8943043F00403F4
:104CD000C5F89430D5F8943003F004030393039B94
:104CE000794DEE68EB6823F48023EB60754B676CBD
:104CF000986AE26B20F47F403A4320F003000243BD
:104D0000206C013842EA00229A62A26C5F6B6F4805
:104D1000013A3840C2F308020243E06C0138400215
:104D200080B20243206D0138000400F4FE0002430B
:104D3000606D0138000600F0FE4002435A639A6A33
:104D400022F010029A62E26DD2009A639A6A42F0EF
:104D500010029A629A6AA06D22F00C0202439A62D3
:104D6000720342BFEA6842F48022EA6029B1D3F8B4
:104D7000942022F00402C3F894201A68514C42F0A7
:104D800080721A6004F080FE054623689B0140F1A2
:104D9000F680A36A43F48023A362002030E504F088
:104DA00073FEC01B40457FF644AFCDE504F06CFEBA
:104DB000C01B40457FF650AFC6E541F2883823F06E
:104DC0008003C5F8F0303F4DD5F8F03019057FF578
:104DD00048AF04F059FEC01B4045F5D9B4E504F0D6
:104DE00053FE41F288380746364DD5F8F0309A0721
:104DF00018D4D5F8F0301B067FF533AF41F2883870
:104E0000D5F8F03023F08003C5F8F0302D4DD5F8FB
:104E1000F03018057FF525AF04F036FEC01B404585
:104E2000F5D991E504F030FEC01B4045DDD98BE596
:104E3000E36A244D83B12B6843F480532B6004F064
:104E400023FE06462B689B043FF517AF04F01CFEBB
:104E5000801B0228F6D977E52B6823F480532B605A
:104E600004F012FE06462B689F047FF506AF04F09F
:104E70000BFE801B0228F6D966E5236B114D83B12A
:104E80002B6843F480432B6004F0FEFD06462B683C
:104E900019043FF5F6AE04F0F7FD801B0228F6D9A1
:104EA00052E52B6823F480432B6004F0EDFD0646A9
:104EB0002B681A047FF5E5AE04F0E6FD801B02289E
:104EC000F6D941E5000C0246000802460000808049
:104ED000636B604D002B3AD0AB6843F40003AB60CA
:104EE000AB68A26A23F070631343AB60636A226A03
:104EF000B3F1404F16D3EB6823F01F031343EB606D
:104F0000544D2B6843F010032B6004F0BDFD0646A2
:104F10002B689B063FF5B9AE04F0B6FD801B022856
:104F2000F6D911E5002B05DAEB6823F4787343EA30
:104F30004213E4E7B3F1804FEB682BBF23F4F8434F
:104F400023F4782343EA822343EAC233D7E72B686A
:104F500023F010032B6004F097FD06462B689F0694
:104F60007FF593AE04F090FD801B0228F6D9EBE4A8
:104F700004F08AFD801B02287FF69CAEE4E404F076
:104F800083FD401B02287FF600AFDDE404F07CFDCA
:104F90000446286810F0007006D1AB6A23F4E023C1
:104FA00023F00303AB622BE404F06EFD001B022828
:104FB000EFD9C9E40128AA6A6B6B3FF421ACE06B1E
:104FC00002F0030181427FF4CFAB216CC2F30320D6
:104FD000013988427FF4C8AB616C02F470428A42A6
:104FE0007FF4C2ABA26CC3F30801013A91427FF493
:104FF000BBABE26CC3F34621013A91427FF4B4AB00
:10500000226DC3F30641013A91427FF4ADAB626D6C
:10501000C3F30663013A93427FF4A6AB0D4BE16DF7
:105020009A6BC2F3CC028A423FF4B7AE9A6A22F07E
:1050300010029A6204F028FD054604F025FDA842FE
:10504000FBD0E26D034BD2009A639A6A42F01002E1
:105050009A62A2E6000C024608B5FFF76DFB044B0E
:10506000044A1B6AC3F30213D35CD84008BD00BFD7
:10507000000C02469CB2020808B5FFF75DFB044B2A
:10508000044A1B6AC3F30223D35CD84008BD00BFA7
:10509000000C02469CB2020808B5FFF74DFB044B1A
:1050A000044A5B6AC3F30213D35CD84008BD00BF57
:1050B000000C02469CB202081F2303600D4BDA6904
:1050C00002F0030242601A6A02F00F0282601A6A5A
:1050D00002F07002C2601A6A120902F070020261E4
:1050E0005B6A03F070034361034B1B6803F00F031B
:1050F0000B607047000C024600200240036A026AFF
:1051000070B522F001020262446882690D6822F4DF
:10511000803222F073022A438D6823F002032B436E
:105120002B4DA8421FD005F18055A8421BD0294D18
:10513000A84218D005F18055A84214D0264DA842A7
:1051400011D005F18055A8420DD0244DA8420AD0B7
:1051500005F18055A84206D0214DA84203D005F1A3
:105160008055A8422ED1CD6823F008032B43184D5B
:1051700023F00403A8421FD005F18055A8421BD09C
:10518000144DA84218D005F18055A84214D0124DF4
:10519000A84211D005F18055A8420DD00F4DA8426C
:1051A0000AD005F18055A84206D00D4DA84203D083
:1051B00005F18055A84205D124F44075D1E9054692
:1051C00034432C43446082614A684263036270BD89
:1051D000002C0140003401400040014000440140E7
:1051E00000480140036A026A70B522F480720262CC
:1051F0004468C2690D6822F4803222F073022A43A7
:105200008D6823F4007343EA0523224DA8420AD097
:1052100005F18055A84206D01F4DA84203D005F1E4
:105220008055A84214D1CD6823F4006343EA0523D6
:10523000184D23F48063A8421FD005F18055A84281
:105240001BD0154DA84218D005F18055A84214D0A6
:10525000124DA84211D005F18055A8420DD0104D35
:10526000A8420AD005F18055A84206D00D4DA842AB
:1052700003D005F18055A84206D124F44055D1E968
:105280000546344345EA04144460C2614A68C26377
:10529000036270BD002C0140003401400040014019
:1052A0000044014000480140036A026A70B522F4DC
:1052B000805202624468C2690D6822F0807222F452
:1052C000E64242EA05228D6823F4005343EA05339F
:1052D000224DA8420AD005F18055A84206D0204DA3
:1052E000A84203D005F18055A84214D1CD6823F41B
:1052F000004343EA0533194D23F48043A8421FD0ED
:1053000005F18055A8421BD0154DA84218D005F1D3
:105310008055A84214D0134DA84211D005F18055F4
:10532000A8420DD0104DA8420AD005F18055A842E0
:1053300006D00E4DA84203D005F18055A84206D1F3
:1053400024F44045D1E90546344345EA84144460D9
:10535000C2614A680264036270BD00BF002C014054
:105360000034014000400140004401400048014039
:10537000036A026A30B522F4803202624468026D28
:105380000D6822F4803222F070022A438D6823F4E3
:10539000003343EA0543174DA8421FD005F180555D
:1053A000A8421BD0144DA84218D005F18055A84240
:1053B00014D0124DA84211D005F18055A8420DD04D
:1053C0000F4DA8420AD005F18055A84206D00D4DD8
:1053D000A84203D005F18055A84204D14D6924F4B8
:1053E000803444EA0524446002654A6882640362AA
:1053F00030BD00BF002C014000340140004001409E
:105400000044014000480140036A026A30B522F4BA
:10541000801202624468026D0D6822F0807222F4EC
:10542000E04242EA05228D6823F4001343EA055363
:10543000164DA8421FD005F18055A8421BD0144D2F
:10544000A84218D005F18055A84214D0114DA842A9
:1054500011D005F18055A8420DD00F4DA8420AD0B9
:1054600005F18055A84206D00C4DA84203D005F1A5
:105470008055A84204D14D6924F4802444EA85244F
:10548000446002654A68C264036230BD002C01407A
:105490000034014000400140004401400048014008
:1054A00090F83D30012B46D10223026880F83D3050
:1054B000D36843F00103D3600368204A93422CD0A1
:1054C00002F18052934228D0B3F1804F25D0B3F13E
:1054D000A04F22D01A4A93421FD002F18052934229
:1054E0001BD0184A934218D002F18052934214D034
:1054F000154A934211D002F1805293420DD0134AC3
:1055000093420AD002F18052934206D0104A93424D
:1055100003D002F18052934207D199680D4A0A40A4
:10552000062A06D0B2F5803F03D01A6842F0010285
:105530001A60002070470120704700BF002C014016
:105540000004004000080040000C0040003401400E
:1055500000400140070001007047704770477047E6
:10556000704770B503680446DD681E69B2070FD541
:10557000A9070DD56FF002021A61012303770368B2
:105580009B699A0700F0A780FFF7E8FF00232377C5
:10559000730712D5680710D56FF004022368204600
:1055A0001A610223237723689B6913F4407F00F07C
:1055B0009880FFF7D3FF00232377310711D52A07FF
:1055C0000FD56FF00802236820461A610423237761
:1055D0002368DB699B0700F08A80FFF7BFFF002389
:1055E0002377F10611D5EA060FD56FF01002236874
:1055F00020461A61082323772368DB6913F4407F70
:105600007BD0FFF7ABFF00232377F30708D5E8072C
:1056100006D56FF00102236820461A61FDF772FB80
:1056200016F4025F08D0290606D56FF402522368EB
:1056300020461A6101F0F9FFF20508D52B0606D5C0
:105640006FF48072236820461A6101F0EFFF700644
:1056500008D5690606D56FF04002236820461A6116
:10566000FFF77EFFB20608D5AB0606D56FF0200225
:10567000236820461A6101F0D7FFF00208D5E9023D
:1056800006D56FF48012236820461A6101F0CFFF1F
:10569000B20208D5AB0206D56FF40012236820468B
:1056A0001A6101F0C5FF700208D5690206D56FF4D2
:1056B0008002236820461A6101F0BBFF320222D526
:1056C0002B0220D56FF40002236820461A61BDE842
:1056D000704001F0AFBFFFF740FF2046FFF73FFFEC
:1056E00054E7FFF73AFF2046FFF739FF63E7FFF77C
:1056F00034FF2046FFF733FF71E7FFF72EFF204608
:10570000FFF72DFF7FE770BD534A0368904225D015
:1057100002F18052904221D0B0F1804F1ED0B0F102
:10572000A04F1BD04D4A904218D002F180529042B7
:1057300014D04B4A904211D002F1805290420DD0C9
:10574000484A90420AD002F18052904206D0464A1E
:10575000904203D002F1805290422CD14A6823F04B
:10576000700313433C4A90423AD002F18052904277
:1057700036D0B0F1804F33D0B0F1A04F30D0374A9F
:1057800090422DD002F18052904229D0344A90426A
:1057900026D002F18052904222D0324A90421FD04D
:1057A00002F1805290421BD02F4A904218D002F151
:1057B0008052904214D02D4A904211D002F1805272
:1057C00090420DD02A4A90420AD002F18052904273
:1057D00006D0284A904203D002F18052904203D171
:1057E000CA6823F4407313434A6923F080031343C8
:1057F00003608B68C3620B688362174B98421FD0AB
:1058000003F1805398421BD0174B984218D003F1F4
:105810008053984214D0154B984211D003F1805315
:1058200098420DD0124B98420AD003F1805398420F
:1058300006D0104B984203D003F18053984201D117
:105840000B690363012343610369DB0742BF0369FB
:1058500023F0010303617047002C01400004004065
:1058600000080040000C00400034014000400140AE
:10587000004401400048014010B5044650B390F880
:105880003D3003F0FF021BB980F83C20FDF7FAFF22
:105890000223206884F83D30211DFFF735FF0123E6
:1058A000002084F8483084F83E3084F83F3084F893
:1058B000403084F8413084F8423084F8433084F832
:1058C000443084F8453084F8463084F8473084F812
:1058D0003D3010BD0120FCE710B5044650B390F8F0
:1058E0003D3003F0FF021BB980F83C20FDF7F6FFC6
:1058F0000223206884F83D30211DFFF705FF0123B6
:10590000002084F8483084F83E3084F83F3084F832
:10591000403084F8413084F8423084F8433084F8D1
:10592000443084F8453084F8463084F8473084F8B1
:105930003D3010BD0120FCE710B5044650B390F88F
:105940003D3003F0FF021BB980F83C20FDF750FF0B
:105950000223206884F83D30211DFFF7D5FE012386
:10596000002084F8483084F83E3084F83F3084F8D2
:10597000403084F8413084F8423084F8433084F871
:10598000443084F8453084F8463084F8473084F851
:105990003D3010BD0120FCE710B5044650B390F82F
:1059A0003D3003F0FF021BB980F83C20FFF7D4FD27
:1059B0000223206884F83D30211DFFF7A5FE012356
:1059C000002084F8483084F83E3084F83F3084F872
:1059D000403084F8413084F8423084F8433084F811
:1059E000443084F8453084F8463084F8473084F8F1
:1059F0003D3010BD0120FCE7036A026A70B522F059
:105A000010020262446882690D6822F0807222F4FA
:105A1000E64242EA05228D6823F0200343EA05139B
:105A2000224DA8420AD005F18055A84206D0204D4B
:105A3000A84203D005F18055A84214D1CD6823F0C7
:105A4000800343EA0513194D23F04003A8421FD0F9
:105A500005F18055A8421BD0154DA84218D005F17C
:105A60008055A84214D0134DA84211D005F180559D
:105A7000A8420DD0104DA8420AD005F18055A84289
:105A800006D00E4DA84203D005F18055A84206D19C
:105A900024F44065D1E90546344345EA8404446072
:105AA00082614A688263036270BD00BF002C0140BE
:105AB00000340140004001400044014000480140E2
:105AC00038B590F83C300546012B2CD00123082A2C
:105AD00080F83C301BD004D86AB1042A13D00120CE
